:060000000C9434000C9486
:10000600AE000C9400000C9400000C9400000C94BC
:1000160000000C9400000C9400000C9400000C945A
:1000260000000C9400000C9400000C9400000C944A
:1000360000000C9400000C9400000C9400000C943A
:1000460000000C9400000C9400000C9400002A00A0
:1000560072756E6E696E670080C0020060015E0098
:100066000000F894EE27ECBBF1E0FBBFEBBFE5BF69
:100076008DE0A2E0BB27ED938A95E9F780E094E056
:10008600A0E6ED930197E9F7E0E6F0E0859195911A
:10009600009761F0A591B59105901590BF01F0010B
:1000A60005900D920197E1F7FB01F0CFEFE5EDBF6B
:1000B600E4E0EEBFC0E6D1E00C94D6001A930A93B2
:1000C6001FEFAC9835D179F038D111F411E00BC09F
:1000D600E530A0E0FA0711F412E005C0E330A0E035
:1000E600FA0709F413E0AC9AAD9822D179F025D13C
:1000F60011F414E00BC0E530A0E0FA0711F415E0A6
:1001060005C0E330A0E0FA0709F416E0AD9AAE9810
:100116000FD179F012D111F417E00BC0E530A0E051
:10012600FA0711F418E005C0E330A0E0FA0709F475
:1001360019E0AE9AAF98FCD039F0E02FF0E0E53048
:10014600A0E0FA0709F410E0AF9AE0EFE5BBE12F73
:100156000991199108950A921A92FA926A937A93DA
:100166008A939A93AA93BA93EA93FA93EFB7EA9388
:100176001A93A4DF1E2FE1E0EA93A1E070D0A4E574
:10018600B0E099D0A12F82D01991E991EFBFF991F2
:10019600E991B991A9919991899179916991F9908A
:1001A600199009901895E0E0EABBEBBBE7BBE8BB0A
:1001B600E7E0E4BBE0EEE5BBE0E0E1BBE2BBE3BFCA
:1001C600E2BFECBFEFBDEEBDEDBDECBDE7BDE6BDEC
:1001D600EBBDEABDE9BDE8BDE2BDE5BDE4BDE3BDFD
:1001E600E9BFEBB7E064EBBFE2E0E5BFE0E0E4BF08
:1001F600E0E4EABFE0E0EAB9E0E8E8B9E0E0E0BF61
:10020600E6B9EDB9E6BFA8E069D07894E0E0EA93F4
:10021600A0E025D0A6E5B0E04ED0FFCFFFCFAA9351
:10022600EBB3EF70AE2FE881E07FEA2BEBBB82E009
:100236008A95F1F7DA9A82E08A95F1F7DA9882E000
:100246008A95F1F773C0AA93A881E9DFE881E29560
:10025600E883A881E4DF81E18A95F1F767C0AA9374
:10026600E881F0E0E05AFE4FE081A981AE0FEBDFB6
:100276005980488022960895A2E065D0ACE0E3DF7D
:10028600A1E061D0E0E04E2E5E2E0895AA93A881EB
:10029600AA3011F0571448F0E0E0EA934394A42DF5
:1002A600DEDFA881AA3009F441C05394D89AA88108
:1002B600CADFD8983BC0BA93AA931A93E981FA8108
:1002C6003196E983FA833197E4911E2FE03019F0D5
:1002D600A12FDCDFF3CF188123960895AA93EAB302
:1002E600E06FEABBD29AD09AD19ADA98D898D99880
:1002F6007880E881E058E0936201E881E054E09379
:100306006301A4E1B0E00E94B10122D021D020D047
:10031600A0E285DF81E28A95F1F7A8E294DFA4E006
:1003260092DFA5E890DFA6E08EDFA6DF219608958E
:10033600E3B3E7700E2F07300895E02FF0E0E630C4
:10034600A0E0FA0708957FDFA3E0B0E00C94B101C6
:10035600A0E365DF81E28A95F1F70895109639F0FA
:10036600A8958AEF90E00197F1F71197C9F70895DC
:00000001FF
