:0A0000000C942F000C9400000C94E7
:10000A0000000C9400000C9400000C9400000C9466
:10001A0000000C9400000C9400000C9400000C9456
:10002A0000000C9400000C9400000C9400000C9446
:10003A0000000C9400000C9400000C9400000C9436
:10004A0000000C9400000C9400003F065B4F666DA4
:10005A007D077F6FF894EE27ECBBF1E0FBBFEBBFA7
:10006A00E5BF8DE0A2E0BB27ED938A95E9F780E032
:10007A0094E0A0E6ED930197E9F7EFE5EDBFE4E040
:10008A00EEBFC0E6D1E00C944A00EFEFEABBE7BB53
:10009A00E4BBE1BBD89831E000E010E00830E0E0D2
:1000AA001E07D4F4D89B02C0D89801C0D89AF80188
:1000BA00EC5AFF4F049008BAE32FE095E2BBF8012F
:1000CA00EC5AFF4F049005BA330FA4EFB1E00E9437
:1000DA0073000F5F1F4FE2CFDECFFFCF109639F0CC
:1000EA00A8958AEF90E00197F1F71197C9F708955B
:00000001FF
