:0C0000000C9445000C9400000C940000CF
:10000C000C9400000C9400000C9400000C94000064
:10001C000C9400000C9400000C9400000C94000054
:10002C000C9472000C9400000C94A4000C9400002E
:10003C000C9400000C9400000C9400000C94000034
:10004C000C9400000C9400001027E80364000A00D4
:10005C000100001000011000010000000000000071
:10006C00000061006200630080C0010002006600B5
:10007C000600040068000200700174000000F8948F
:10008C00EE27ECBBF1E0FBBFEBBFE5BF8DE0A2E0E0
:10009C00BB27ED938A95E9F780E094E0A0E6ED9319
:1000AC000197E9F7E6E7F0E085919591009761F00B
:1000BC00A591B59105901590BF01F00105900D9299
:1000CC000197E1F7FB01F0CFEFE5EDBFE4E0EEBF08
:1000DC00C0E6D1E00C94D600EA93FA93EFB7EA931A
:1000EC001A930A931BB10CB1E12FEC7189F4E52D35
:1000FC005394F0E0E05AFE4F0083E8E0E51509F474
:10010C0055247394E8E0E71519F47724689420F8E3
:10011C000991199125C01A937720F1F3E42D43949A
:10012C00F0E0E05AFE4F1081E8E0E41509F44424B5
:10013C00F8947A947894E12F19910895EA93FA93AC
:10014C00EFB7EA93882061F08A94E92D9394F0E05C
:10015C00E859FE4FE081ECB9E8E0E91509F499247F
:10016C00E991EFBFF991E9911895AA93E8E0E815A8
:10017C00E9F3F894882011F45D990DC0E62D639491
:10018C00F0E0E859FE4FA881A083E8E0E61509F4F9
:10019C006624839402C0E881ECB978940C942E0305
:1001AC00E0E0EABBEBBBE7BBE8BBE4BBE5BBE1BB18
:1001BC00E2BBE3BFE2BFECBFEFBDEEBDEDBDECBDFE
:1001CC00E7BDE6BDEBBDEABDE9BDE8BDE2BDE5BD01
:1001DC00E4BDE3BDE9BFE5BFE4BFEBB9E8EDEAB9C7
:1001EC00E6E8E0BDE0E0E0BDECE0E9B9E0E8E8B964
:1001FC00E0E0E0BFE6B9EDB9E6BFA0E10E94030381
:10020C007894772089F587DF1E2FF0E0E136A0E0A7
:10021C00FA0749F4EEE6F0E00E944903AEE6B0E0DE
:10022C000E94F00221C0E236A0E0FA0749F4E0E7B0
:10023C00F0E00E944903A0E7B0E00E94F00214C075
:10024C00E336A0E0FA0781F4E0E0EA93A0E00E9434
:10025C00C202A2E7B0E00E94F002E2E7F0E0FA93FB
:10026C00EA9380E044D12296CCCFFFCFBA93AA93E5
:10027C00AA817BDFA881B981ED91FD913196FE9326
:10028C00EE930C940103BA93AA9326970E94A003B1
:10029C0010E0AC85BD85E0E0F0E0ED93FC93EA89DD
:1002AC00FB893196EA8BFB8B3197E4912E2FE03052
:1002BC0009F415C1E12FE03039F4253211F411E0C5
:1002CC0002C00E9454030AC1E130A9F4253219F48A
:1002DC000E94540302C112E040E000E02D3211F400
:1002EC0001E0FCC02B3211F44BE2F8C0203211F4C7
:1002FC0040E2F4C002C0E23039F450E013E02033A5
:10030C0011F40068EBC003C0E33009F0E7C0203300
:10031C0010F02A3308F007C0AAE05A9F502DE22FA4
:10032C00E0535E0FDBC0E22FE33649F40E945B031F
:10033C00E889F989A481AA930E946103CEC0E337AE
:10034C0041F40E945B030E9467030E9430031E2F3E
:10035C000AC0E03761F40E945B030E9467030E94AD
:10036C003C031E2F086002600F7730E034C0E43687
:10037C0011F0E93611F4046002C0E53731F4E4E51C
:10038C00F0E0EE83FF8315E00CC0E83511F4086053
:10039C0003C0E83709F0A1C0EEE5F0E0EE83FF837F
:1003AC0014E002FF14C00E945B030E947103AB8532
:1003BC00AA233AF4EA85FB850E949403EA87FB871B
:1003CC004DE2403011F01F5F01C00B7F04C00E9452
:1003DC005B030E94710300FD11C0151778F407FF31
:1003EC0008C002FF04C00B7F242F115001C020E372
:1003FC0001C020E20E9454035150EFCF312F01FF76
:10040C0017C03030A1F003FF06C0EE81FF812591AB
:10041C00EE83FF8305C0AE81BF812D91AE83BF8378
:10042C000E945403503009F051503150EACF4BC068
:10043C0020E3EE81FF810E949C03E887F987EE811F
:10044C00FF813296EE83FF83E885F985AA85BB850B
:10045C00AE17BF0750F02F5FA885B985EA85FB85DD
:10046C00EA1BFB0BEA87FB87EFCF2A3328F003FF4D
:10047C0002C0295F01C0295D04FD1AC0213320F49C
:10048C00A885B985119709F409C0531710F000FF1E
:10049C0001C013C020E207FF0BC020E3006102FF84
:1004AC0007C00B7F4A930E946103503009F05150F2
:1004BC000E945403503009F051503150A885B98531
:1004CC00129708F0B5CF00FF08C0503031F05150F2
:1004DC00E0E2EA930E946103F8CF10E0E0CEAC8535
:1004EC00BD850E9498030E94A70364960895FF920D
:1004FC00F82E26971A930A93DE0114960E94900305
:10050C008D01E0E0EC83ED83EE83EF83DE01189642
:10051C000E9490030E949803FA93EA931A930A9309
:10052C00ECE3F1E0FA93EA93DE011896ACDE198164
:10053C0008812896FF900895AA93EBB3EF70AE2F25
:10054C00E881E07FEA2BEBBB82E08A95F1F7DA9A3F
:10055C0082E08A95F1F7DA9882E08A95F1F778C013
:10056C00AA93A881E9DFE881E295E883A881E4DF1A
:10057C0081E18A95F1F76CC0AA93E881F0E0E0592B
:10058C00FE4FE081A981AE0FEBDFB980A8802296E7
:10059C000895A2E00E947903ACE0E2DFA1E00E94A2
:1005AC007903E0E0AE2EBE2E0895AA93A881AA305E
:1005BC0011F0BD1448F0E0E0EA93A394AA2DDCDF1F
:1005CC00A881AA3009F444C0B394D89AA881C8DF92
:1005DC00D8983EC0BA93AA931A93E981FA813196BE
:1005EC00E983FA833197E4911E2FE03019F0A12FA3
:1005FC00DCDFF3CF188123960895AA93EAB3E06F5A
:10060C00EABBD29AD09AD19ADA98D898D998D8804D
:10061C00E881E058E0937201E881E054E0937301C3
:10062C00A4E1B0E00E9486030E947F030E947F0336
:10063C000E947F03A0E280DF81E28A95F1F7A8E2B5
:10064C008FDFA4E08DDFA5E88BDFA6E089DFA1DFDB
:10065C0021960895BA93AA93A991B991EE27FF27F1
:10066C006D91662311F03196FBCF0895BA93AA933E
:10067C00AA27BB27E991F9910590002011F011965A
:10068C00FBCFFD010895FA93EA9380E00E947D026E
:10069C002296E0E0EA93A0E00C94C2022A93AD8586
:1006AC00BE85EF85F88909950895E889F98934970D
:1006BC00E88BF98B0895AD85BE85EF85F889099592
:1006CC000895A889B98914960E949803EE83FF8334
:1006DC00AE81BF810895A889B98914960E949803A8
:1006EC00EA87FB8708950E94B602A3E0B0E00C9461
:1006FC008603A0E30E94A20281E28A95F1F7089595
:10070C00109639F0A8958AEF90E00197F1F71197C0
:10071C00C9F708950024AF0DB01D0895F195E1952A
:10072C00F0400895ED91FC91119708950590F49186
:10073C00E02D08955A934A933A932A931A930A9365
:10074C0008955D814C813B812A811981088108952E
:00000001FF
