:0A0000000C9452000C9400000C94C4
:10000A0000000C9400000C9400000C9400000C9466
:10001A0000000C9400000C9400000C9400000C9456
:10002A0000000C947F000C9400000C9400000C94C7
:10003A0000000C9400000C9400000C9400000C9436
:10004A0000000C94C2000C9400001027E80364001E
:10005A000A00010000100001100001000000000069
:10006A0000000000726563696576656420646174E6
:10007A00612025630054656D70206973203A20253C
:10008A006420000080C0010002006600060004002F
:10009A006800020068018E000000F894EE27ECBBAD
:1000AA00F1E0FBBFEBBFE5BF8DE0A2E0BB27ED931C
:1000BA008A95E9F780E094E0A0E6ED930197E9F7E5
:1000CA00E0E9F0E085919591009761F0A591B591ED
:1000DA0005901590BF01F00105900D920197E1F787
:1000EA00FB01F0CFEFE5EDBFE4E0EEBFC0E6D1E003
:1000FA000C940E010E94A50360971A930A931BB1F0
:10010A000CB1FE013296FA93EA93EEE6F0E0FA9326
:10011A00EA93E02FFF27662777270E94B303E0E0E0
:10012A00EA93A1E00E947801DE0112960E94A601DC
:10013A00E12FEC7189F4E72D7394F0E0E05AFE4F59
:10014A000083E8E0E71509F477249394E8E0E915D9
:10015A0019F49924689420F81981088162964BC091
:10016A00AA93E881E7B983E08A95F1F7369A349B36
:10017A00FECF349AE4B1F5B120C10E94A5032F97AE
:10018A001A930A93A3E0ECDFF695E7958F01E0E076
:10019A00EA93A0E0A8D0FE013296FA93EA93EFE739
:1001AA00F0E0FA93EA93F8010E9405040E94B3036F
:1001BA00DE011296C6D00E31E0E01E0714F4E2E327
:1001CA0007C00233E0E01E0714F4E6E901C0EAEFD3
:1001DA00E3BDF20131962F01E4E0F0E0E415F50504
:1001EA0021F444245524E1E002C0E8B3EE0FE8BB51
:1001FA00198108816196E991EFBFF991E991B99165
:10020A00A9919991899179916991F9901990099097
:10021A001895E0E0EABBEBBBEFE0E7BBE0E0E8BB48
:10022A00E7E0E4BBE0EFE5BBE0E8E1BBE8E0E2BB26
:10023A00EAE0E3BFE0E0E2BFEFE0ECBFE0E0EFBD01
:10024A00EEBDEDBDECBDE7BDE6BDEBBDEABDE9BD6A
:10025A00E8BDE2BDEBE6E5BDE0E0E4BDE3BDE2E01A
:10026A00E9BFEBB7E068EBBFE8E0E5BFE0E0E4BF79
:10027A00E0E8EABFE0E0EBB9E8EDEAB9E6E8E0BDBC
:10028A00E0E0E0BDECE0E9B9E0E8E8B9E0E0E7B9D0
:10029A00E1E8E6B9E0E0E0BFEDB9E6BFA0E162D08F
:1002AA007894FFCFFFCFAA93EBB3EF70AE2FE8811C
:1002BA00E07FEA2BEBBB82E08A95F1F7DA9A82E0DB
:1002CA008A95F1F7DA9882E08A95F1F776C0AA93CF
:1002DA00A881E9DFE881E295E883A881E4DF81E18A
:1002EA008A95F1F76AC0AA93E881F0E0E859FE4FCF
:1002FA00E081A981AE0FEBDF8980B880229608954C
:10030A00A2E00E94BA03ACE0E2DFA1E00E94BA03D5
:10031A00E0E0BE2E8E2E0895AA93A881AA3011F08D
:10032A008A1448F0E0E0EA93B394AB2DDCDFA881AD
:10033A00AA3009F442C08394D89AA881C8DFD89811
:10034A003CC0BA93AA931A93A981BA81ED91A98361
:10035A00BA831E2FE03019F0A12FDEDFF5CF188106
:10036A0023960895AA93EAB3E06FEABBD29AD09A89
:10037A00D19ADA98D898D998A880E881E058E09379
:10038A006A01E881E054E0936B01A4E1B0E00E94C5
:10039A00F3030E94C0030E94C0030E94C003A0E2AC
:1003AA0082DF81E28A95F1F7A8E291DFA4E08FDF8C
:1003BA00A5E88DDFA6E08BDFA3DF21960895BA9327
:1003CA00AA931A930A93AA81BB8112960E940A04DD
:1003DA00309759F1AA81BB8114960E940A048F01B1
:1003EA00309761F00230E0E01E0798F0F80131978B
:1003FA008F01AA81BB811496ED93FC93AA81BB81DC
:10040A001296ED91FD913196FE93EE933197AC8160
:10041A00A083AA81BB810E940A04FF232AF0ED91DE
:10042A00FD913196FE93EE9306C0AA81BB81EFEF50
:10043A00FFEFED93FC931981088125960895BA93ED
:10044A00AA9326970E94170410E0AC85BD85E0E0C8
:10045A00F0E0ED93FC93EA89FB893196EA8BFB8BFA
:10046A003197E4912E2FE03009F415C1E12FE030E5
:10047A0039F4253211F411E002C00E94C7030AC1FF
:10048A00E130A9F4253219F40E94C70302C112E02F
:10049A0040E000E02D3211F401E0FCC02B3211F4EF
:1004AA004BE2F8C0203211F440E2F4C002C0E2305C
:1004BA0039F450E013E0203311F40068EBC003C0B4
:1004CA00E33009F0E7C0203310F02A3308F007C000
:1004DA00AAE05A9F502DE22FE0535E0FDBC0E22FB5
:1004EA00E33649F40E94CE03E889F989A481AA93E4
:1004FA000E94D403CEC0E33741F40E94CE030E9487
:10050A00DA030E948C031E2F0AC0E03761F40E94AE
:10051A00CE030E94DA030E9498031E2F086002602D
:10052A000F7730E034C0E43611F0E93611F4046094
:10053A0002C0E53731F4E4E5F0E0EE83FF8315E02D
:10054A000CC0E83511F4086003C0E83709F0A1C00F
:10055A00EEE5F0E0EE83FF8314E002FF14C00E9490
:10056A00CE030E94E403AB85AA233AF4EA85FB850D
:10057A000E940104EA87FB874DE2403011F01F5FB9
:10058A0001C00B7F04C00E94CE030E94E40300FD59
:10059A0011C0151778F407FF08C002FF04C00B7FCB
:1005AA00242F115001C020E301C020E20E94C7039A
:1005BA005150EFCF312F01FF17C03030A1F003FFA8
:1005CA0006C0EE81FF812591EE83FF8305C0AE81CF
:1005DA00BF812D91AE83BF830E94C703503009F0BB
:1005EA0051503150EACF4BC020E3EE81FF810E9487
:1005FA000E04E887F987EE81FF813296EE83FF8346
:10060A00E885F985AA85BB85AE17BF0750F02F5F2D
:10061A00A885B985EA85FB85EA1BFB0BEA87FB8778
:10062A00EFCF2A3328F003FF02C0295F01C0295DFA
:10063A0004FD1AC0213320F4A885B985119709F45D
:10064A0009C0531710F000FF01C013C020E207FFD2
:10065A000BC020E3006102FF07C00B7F4A930E9490
:10066A00D403503009F051500E94C703503009F0AA
:10067A0051503150A885B985129708F0B5CF00FFBF
:10068A0008C0503031F05150E0E2EA930E94D4039E
:10069A00F8CF10E0E0CEAC85BD850E940A040E9426
:1006AA001E0464960895FF92F82E26970E94190454
:1006BA000E94EC03309719F4EFEFFFEF23C0DE013D
:1006CA0016960E94FD038D010E94EC03EE83FF83C0
:1006DA00E0E0E887E987DE011A960E94FD030E949E
:1006EA000A04FA93EA931A930A93E4EEF1E0FA936E
:1006FA00EA93DE011A96A3DE9F01AE81BF81E0E094
:10070A00EC93F9010E9420042A96FF900895BA9367
:10071A00AA93A991B991EE27FF276D91662311F04B
:10072A003196FBCF0895BA93AA93AA27BB27E991DA
:10073A00F9910590002011F01196FBCFFD01089563
:10074A000A921A92FA926A937A938A939A93AA933A
:10075A00BA93EA93FA93EFB7EA9308950E941204C0
:10076A0084E00E945803289608950E946C01A3E031
:10077A00B0E00C94F303A0E30E94580181E28A9549
:10078A00F1F708952A93AD85BE85EF85F889099515
:10079A000895E889F9893497E88BF98B0895AD852E
:1007AA00BE85EF85F88909950895A889B9891496AF
:1007BA000E940A04EE83FF83AE81BF810895A8894F
:1007CA00B98914960E940A04EA87FB870895DE0114
:1007DA001C960E94FD030E940A040895109639F09F
:1007EA00A8958AEF90E00197F1F71197C9F7089554
:1007FA000024AF0DB01D0895F195E195F0400895DC
:10080A006F2F660F660B762F0895ED91FC91119765
:10081A0008950590F491E02D08957A936A93FA93D6
:10082A00EA9308955A934A933A932A931A930A9306
:10083A0008955D814C813B812A811981088108953F
:00000001FF
