:080000000C942A000C94450049
:100008000C944B000C9400000C9400000C9400001D
:100018000C9400000C9400000C9400000C94000058
:100028000C9400000C9400000C9400000C94000048
:100038000C9400000C9400000C9400000C94000038
:100048000C9400000C9400000C940000F894EE2727
:10005800ECBBF1E0FBBFEBBFE5BF8DE0A2E0BB2747
:10006800ED938A95E9F780E094E0A0E6ED93019797
:10007800E9F7EFE5EDBFE4E0EEBFC0E6D1E00C94B0
:100088005500EA93EFB7EA93ECB7EE5C05C0EA9344
:10009800EFB7EA93ECB7E253ECBFE991EFBFE99110
:1000A8001895E8E0E7BBE0E0E8BBE1BBECE0E2BBC9
:1000B800E3E6E3BFE0E0E2BFECBFEFBDEEBDEDBDC0
:1000C800ECBDE7BDE6BDEBBDEABDE9BDE8BDE2BDFF
:1000D800E5BDE4BDE3BDE9BFEBB7E06CEBBFEAE02B
:1000E800E5BFE0E0E4BFE0ECEABF7894FFCFFFCFE4
:00000001FF
