:080000000C945A000C9400005E
:100008000C9400000C9400000C9400000C94000068
:100018000C9400000C9400000C9400000C94000058
:100028000C9400000C9400000C9400000C94000048
:100038000C9400000C9400000C9400000C94000038
:100048000C9400000C9400000C94000003020604B9
:100058000C08090131323334656E74657220746896
:1000680065207061737300706173733A00636C6527
:1000780061726564006F70656E65640077726F6E9B
:1000880067207061737321002A0080C00400630137
:100098005C00010060016E00010061016E0001005A
:1000A80062016E000200680192000000F894EE27D9
:1000B800ECBBF1E0FBBFEBBFE5BF8DE0A2E0BB27E7
:1000C800ED938A95E9F780E094E0A0E6ED93019737
:1000D800E9F7E4E9F0E085919591009761F0A59141
:1000E800B59105901590BF01F00105900D9201970B
:1000F800E1F7FB01F0CFEFE5EDBFE4E0EEBFC0E6CE
:10010800D1E00C9487002597E0E0E883E983EA834F
:10011800EB83EC83FF2420E030E0EABBEBBBE7BBDA
:10012800E8BBE4BBE5BBA0E10E94F0010E941A0213
:10013800E0EFE1BBA09AA898EFE0E7BBE0E0E8BBFE
:1001480020E030E0E4E5F0E0049008BA68D01E2F23
:100158001F3FE1F364D0EF3FE9F7E12FF0E0EA3029
:10016800A0E0FA0779F40E942902A0E6B1E00E9413
:100178002D020E94BE01A5E7B0E00E9432020E9453
:100188001A024BC0EB30A0E0FA07C1F5DE01A20F5E
:10019800B31FE0E0EC930E942902A3E6B1E00E94BD
:1001A8007001E030E1F46894F0F8A89AE6E5F0E030
:1001B800049008BA0E943702ADE7B0E00E94DD0162
:1001C8002ED0EA30E9F70E941A02E894F0F8A898CD
:1001D8000E942902A1E6B1E00E942D020EC00E94F1
:1001E8003702A4E8B0E00E9432020E942902A2E687
:1001F800B1E00E942D020E941A020FC02430E0E0F4
:100208003E074CF4F901DE01EA0FFB1F1083A0E959
:10021800B0E00E94DD012F5F3F4F94CFFFCF1A93CC
:100228000A931FEF94980E943C0281F00E944102B9
:1002380011F411E30BC0E530A0E0FA0711F412E362
:1002480005C0E330A0E0FA0709F413E3949A9598FF
:100258000E943C0281F00E94410211F414E30BC099
:10026800E530A0E0FA0711F415E305C0E330A0E09B
:10027800FA0709F416E3959A96980E943C0281F0D1
:100288000E94410211F417E30BC0E530A0E0FA0721
:1002980011F418E305C0E330A0E0FA0709F419E304
:1002A800969A97980E943C0281F00E94410211F4AC
:1002B8001AE00BC0E530A0E0FA0711F410E305C01E
:1002C800E330A0E0FA0709F41BE0979AEFEFE2BBEE
:1002D800E12F099119910895BA93AA93E991F99197
:1002E800A991B9916D917191671721F46623D1F79E
:1002F800EE270895671BE1F3E1E008F4E250089562
:10030800BA93AA93E991F991A991B991CD01619113
:100318006D936623E1F7FC010895AA93EBB3EF70A0
:10032800AE2FE881E07FEA2BEBBB82E08A95F1F7FC
:10033800DA9A82E08A95F1F7DA9882E08A95F1F7FD
:1003480073C0AA93A881E9DFE881E295E883A881D0
:10035800E4DF81E18A95F1F767C0AA93E881F0E0CC
:10036800E859FE4FE081A981AE0FEBDF5980488044
:1003780022960895A2E087D0ACE0E3DFA1E083D025
:10038800E0E04E2E5E2E0895AA93A881AA3011F0BF
:10039800571448F0E0E0EA934394A42DDEDFA881E7
:1003A800AA3009F441C05394D89AA881CADFD898D2
:1003B8003BC0BA93AA931A93E981FA813196E983EB
:1003C800FA833197E4911E2FE03019F0A12FDCDF7A
:1003D800F3CF188123960895AA93EAB3E06FEABB96
:1003E800D29AD09AD19ADA98D898D9987880E88110
:1003F800E058E0936A01E881E054E0936B01A4E1DE
:10040800B0E00E94520244D043D042D0A0E285DF3F
:1004180081E28A95F1F7A8E294DFA4E092DFA5E8EB
:1004280090DFA6E08EDFA6DF21960895A3DFE3E044
:10043800EA93A0E092DFA0E6B0E0BBDFE0E0EA9359
:10044800A1E08BDFAFE6B0E0B4CFFE01FA93EA9308
:1004580008950E94840120E030E00895AADFA8EE04
:10046800B3E00C94520286DFE0E0EA93A3E075CF94
:10047800E0B3E7700E2F07300895E02FF0E0E63084
:10048800A0E0FA0708955DDFA3E0B0E00C94520203
:10049800A0E343DF81E28A95F1F70895109639F0D9
:1004A800A8958AEF90E00197F1F71197C9F7089599
:00000001FF
